:020000040000FA
:1000000002004400000080FB7A007B0290007478BC
:100010005979018015E493A3AD82AE838A828B83E4
:10002000F0A3AA82AB838D828E83D8E9D9E775824B
:100030006C75830674001200567582037583007414
:100040000012005675D0007581BF750E00750F0245
:10005000759F00020008C09FF59FE473D09F22D0D7
:1000600083D082C09FE493C0E0740193C0E0740227
:1000700093F59F2200000000000000000000000037
:100080000000000000000000000000000000000070
:100090000000000D0A007374000100000070726F10
:1000A0006772616D2073746172740A0052656164D5
:1000B0005F4144533132393928290D0A00445244F2
:1000C0005920696E76616C69640D0A0012005FA1A7
:1000D000020012005FE2020012005F1A0300120029
:1000E0005F53030012005F91030012005F260400BB
:1000F00012005FB7040012005F46060012005FCADC
:10010000060012005FEE060012005F1707001200E3
:100110005F26070012005F4307006016080808C644
:10012000C313C618C613C618C613C618C613C6D539
:10013000E0EA227009080808226016181818C6C3D9
:1001400033C608C633C608C633C608C633C6D5E0AC
:10015000EA22E046F608A3E046F608A3E046F608E1
:10016000A3E046F622E0F608A3E0F608A3E0F608CE
:10017000A3E0F622E6F008A3E6F008A3E6F008A361
:10018000E6F022CAC0E0E0A3C582CCC582C583CD1B
:10019000C583F0A3C582CCC582C583CDC583DAE60D
:1001A000D0E0CA22250E10AF08F50E400C150F80C6
:1001B00008F50E4002150FD2AF2200C0D0250E1058
:1001C000AF08F50E500C050F8008F50E5002050F14
:1001D000D2AFD0D022250EF582E4350FF58322254B
:1001E0000EFAE4350FFB22250EFCE4350FFD222527
:1001F0000EC582C0E0E50F34FFC583C0E0E50EC345
:10020000958224F810AF0885830F85820E800885BB
:10021000830F85820ED2AFCEF0A3E520F0A378083D
:10022000E608F0A3DEFAEFF0A3E58124FAF8E60889
:10023000F0A3E608F0A3E608F0A30808E608F0A398
:10024000E608F0A315811581D0E0FED0E0F8158115
:1002500015811581E8C0E0EEC0E022850F83850E90
:1002600082E0A3FEE0A3F5207808E0A3F608DFFA19
:10027000E0A3FFE0A3C0E0E0A3C0E0E0A3C0E0E0B3
:10028000A3C0E0E0A3C0E010AF0885820E85830F15
:10029000800885820E85830FD2AFD083D082020082
:1002A0005C74F71201EFE9FFC2957A017B0012003E
:1002B000FC7E008019C296D295EFC333FF7A027B91
:1002C000001200FCC2957A027B001200FC0EEEC305
:1002D00094085009EFA2E750DCD29680DA7F010241
:1002E000025B74F71201EF7F008020EEC333FEC281
:1002F000957A027B001200FCD2957A027B001200F4
:10030000FCA2975005D3EE92E0FE0FEFC394084095
:10031000DAC295EEF97F0102025B74F71201EFE990
:10032000FF8A08EBFED3EF92E6FF53081FC294EF5B
:10033000F91200CC7A087B001200FCA9081200CC4C
:100340007A027B001200FCEEF91200CCD2947F01FD
:1003500002025B74F71201EFE9FE8A08D3EE92E520
:10036000FE53081FC294C2957A017B00120102EE6F
:10037000F91200CC7A087B00120102A9081200CC05
:100380007A027B00120102D2941200D27F01020293
:100390005B74F21201EF8A0C8B0D75080075090071
:1003A000750A00750B00C295C2947F0080637401CA
:1003B0007808120133C2957A027B001200FCD295B4
:1003C0007A027B001200FCA2975008900225780860
:1003D0001201520EEEC3941840D4EFF87900E8757C
:1003E000F004A4C8AAF075F000A42AFA75F004E994
:1003F000A42AF9E50C28F582E50D39F58378081271
:100400000174750800750900750A00750B007E00FF
:100410000FEFC3940750047E0080B9D294C295793F
:10042000007F0602025B74F41201EF74E11201A472
:1004300090020074031201E7741C12018390021CE5
:10044000AC0EAD0F7403120183A2904060740312CE
:1004500001DF1200E4E974071201D5780812016582
:100460007410780812011AE508C0E0850E82850F25
:1004700083D0E0F074071201D57808120165E4C555
:1004800009F508E508C0E074011201D5D0E0F07468
:10049000071201D57808120165E508C0E074021260
:1004A00001D5D0E0F0AA0EAB0F1200F6E9741F12CE
:1004B00001BA7F0402025BC082C08374FF1201A4F0
:1004C000D286C280C295D294D2847AC87B001201AF
:1004D00002C2847A027B001200FCD2847A147B0070
:1004E0001200FCC29479111200CCD2947A027B00E3
:1004F0001200FC7BEC7A0079031200D87A007903B1
:100500001200DEE9C0E0850E82850F83D0E0F07C2A
:10051000017D00AA0EAB0F1201147C027D007A1F30
:100520007B021201147B967A0079011200D87A00BE
:1005300079011200DEE9C0E0850E82850F83D0E0EC
:10054000F07C017D00AA0EAB0F1201147C027D002D
:100550007A1F7B021201147BD47A0079021200D830
:100560007A0079021200DEE9C0E0850E82850F83F1
:10057000D0E0F07C017D00AA0EAB0F1201147C02CA
:100580007D007A1F7B021201147B007A007905122C
:1005900000D87A0079051200DEE9C0E0850E828578
:1005A0000F83D0E0F07C017D00AA0EAB0F12011486
:1005B0007C027D007A1F7B021201147B017A007994
:1005C0000D1200D87A00790D1200DEE9C0E0850E28
:1005D00082850F83D0E0F07C017D00AA0EAB0F1264
:1005E00001147C027D007A1F7B021201147B017AC8
:1005F00000790E1200D87A00790E1200DEE9C0E010
:10060000850E82850F83D0E0F07C017D00AA0EABC1
:100610000F1201147C027D007A1F7B02120114C2AA
:10062000807A017B00120102D280C29479101200FC
:10063000CCD2947A017B0012010274011201BAD06B
:1006400083D08202005C74F71201EFEAFEEBFF7CBC
:10065000027D007A227B021201147C037D00EEFAF7
:10066000EFFB12011479007F0102025B12010812F4
:10067000010E53F3AE43FD5153F40E53FE7E43FE81
:10068000705386BF1200F07A017B001200FCD2800A
:100690007A0F7B001200FC7C0E7D007A297B02120F
:1006A00001147AC87B00120102C2907C107D007A8E
:1006B000387B02120114A290500B7C0E7D007A4907
:1006C0007B021201141200EA80FB7C007D00800E88
:1006D00008E8700109E84960F70CEC70010DC3EC03
:1006E0009AED9B50067800790080EA02005C7C005D
:1006F0007D00801308E8700109C3E8942EE9940492
:1007000040F20CEC70010DC3EC9AED9B50067800A2
:10071000790080E502005C53C6BFE59EA2E640FA80
:1007200053C6B802005C75F10075F30C53FF3F43EC
:10073000868043C50B43C2D8C2E943864043A884A0
:1007400002005C74F71201EF78007900801B8A8246
:100750008B83E0F5C18A828B83A3AA82AB83A2E953
:1007600050FCC2E908E8700109C3E89CE99D40DE3D
:050770007F0102025BA5
:0400000500000044B3
:00000001FF
