:020000040000FA
:1000000002004400000080FB7A007B0290007478BC
:100010005679018015E493A3AD82AE838A828B83E7
:10002000F0A3AA82AB838D828E83D8E9D9E775824B
:100030009F758305740012005675820375830074E2
:100040000012005675D0007581BF750E00750F0245
:10005000759F00020008C09FF59FE473D09F22D0D7
:1000600083D082C09FE493C0E0740193C0E0740227
:1000700093F59F2200000000000000000000000037
:100080000000000000000000000000000000000070
:100090000000004452445920696E76616C69640D19
:1000A0000A007374000100000070726F6772616D66
:1000B0002073746172740A00526561645F41445335
:1000C0003132393928290D0A0012005F92020012DC
:1000D000005FD3020012005F0C030012005FA10357
:1000E0000012005F3F040012005FCE040012005FA8
:1000F000F4040012005F18050012005F41050012B1
:10010000005F50050012005F6D05006016080808CA
:10011000C6C313C618C613C618C613C618C613C658
:10012000D5E0EA227009080808226016181818C6D7
:10013000C333C608C633C608C633C608C633C6D5D9
:10014000E0EA22E046F608A3E046F608A3E046F619
:1001500008A3E046F622E0F608A3E0F608A3E0F6DE
:1001600008A3E0F622E6F008A3E6F008A3E6F0080C
:10017000A3E6F022CAC0E0E0A3C582CCC582C58355
:10018000CDC583F0A3C582CCC582C583CDC583DA36
:10019000E6D0E0CA22250E10AF08F50E400C150F70
:1001A0008008F50E4002150FD2AF2200C0D0250EF8
:1001B00010AF08F50E500C050F8008F50E50020523
:1001C0000FD2AFD0D022250EF582E4350FF5832271
:1001D000250EFAE4350FFB22250EFCE4350FFD2237
:1001E000250EC582C0E0E50F34FFC583C0E0E50EF3
:1001F000C3958224F810AF0885830F85820E80088E
:1002000085830F85820ED2AFCEF0A3E520F0A378D0
:1002100008E608F0A3DEFAEFF0A3E58124FAF8E699
:1002200008F0A3E608F0A3E608F0A30808E608F043
:10023000A3E608F0A315811581D0E0FED0E0F81503
:100240008115811581E8C0E0EEC0E022850F83852D
:100250000E82E0A3FEE0A3F5207808E0A3F608DF15
:10026000FAE0A3FFE0A3C0E0E0A3C0E0E0A3C0E0A9
:10027000E0A3C0E0E0A3C0E010AF0885820E858354
:100280000F800885820E85830FD2AFD083D0820283
:10029000005C74F71201E0E9FFC2957A017B00125D
:1002A00000ED7E008019C296D295EFC333FF7A022B
:1002B0007B001200EDC2957A027B001200ED0EEE7B
:1002C000C394085009EFA2E750DCD29680DA7F0190
:1002D00002024C74F71201E0E9FF8A08EBFED3EF4B
:1002E00092E6FF53081FC294EFF91200C97A087B07
:1002F000001200EDA9081200C97A027B001200ED7D
:10030000EEF91200C9D2947F0102024C74F212017C
:10031000E08A0C8B0D750800750900750A00750BD5
:1003200000C295C2947F0080637401780812012492
:10033000C2957A027B001200EDD2957A027B001200
:1003400000EDA297500890023178081201430EEE9A
:10035000C3941840D4EFF87900E875F004A4C8AA53
:10036000F075F000A42AFA75F004E9A42AF9E50C66
:1003700028F582E50D39F5837808120165750800C6
:10038000750900750A00750B007E000FEFC3940716
:1003900050047E0080B9D294C29579007F06020293
:1003A0004C74F41201E074E11201959002007403A0
:1003B0001201D8741C12017490021CAC0EAD0F74A3
:1003C00003120174A290406274031201D01200D58E
:1003D000E974071201C678081201567410780812E1
:1003E000010BE508C0E0850E82850F83D0E0F07434
:1003F000071201C67808120156E4C509F508E50898
:10040000C0E074011201C6D0E0F074071201C67892
:1004100008120156E508C0E074021201C6D0E0F0EF
:10042000AA0EAB0F1200E7E9800B7C0E7D007A1F4D
:100430007B02120105741F1201AB7F0402024CC043
:1004400082C083D286C280C295D294D2847AC87B7D
:10045000001200F3C2847A027B001200EDD2847A8B
:10046000147B001200EDC29479111200C9D2947A63
:10047000027B001200ED7BEC7A0079031200CF7B47
:10048000967A0079011200CF7BD47A0079021200AB
:10049000CF7B007A0079051200CF7B017A00790DBD
:1004A0001200CF7B017A00790E1200CFC2807A0150
:1004B0007B001200F3D280C29479101200C9D2944A
:1004C0007A017B001200F3D083D08202005C74F7C3
:1004D0001201E0EAFEEBFF7C027D007A2E7B021225
:1004E00001057C037D00EEFAEFFB12010579007F28
:1004F0000102024C7C007D00800E08E8700109E8D2
:100500004960F70CEC70010DC3EC9AED9B50067836
:1005100000790080EA02005C7C007D00801308E81E
:10052000700109C3E8942EE9940440F20CEC7001C8
:100530000DC3EC9AED9B50067800790080E502002F
:100540005C53C6BFE59EA2E640FA53C6B802005C03
:1005500075F10075F30C53FF3F43868043C50B4391
:10056000C2D8C2E943864043A88402005C74F712F3
:1005700001E078007900801B8A828B83E0F5C18AD4
:10058000828B83A3AA82AB83A2E950FCC2E908E86C
:10059000700109C3E89CE99D40DE7F0102024C1214
:1005A00000F91200FF5386BF1200E17A017B0012AE
:1005B00000EDD2807A0F7B001200ED7C0E7D007A78
:1005C000357B021201057AC87B001200F37C107D96
:0D05D000007A447B021201051200DB80F06E
:0400000500000044B3
:00000001FF
